:100000000C94B5000C94D2000C94D2000C94D20045
:100010000C94D2000C94D2000C94D2000C94D20018
:100020000C94D2000C94D2000C94D2000C94D20008
:100030000C94D2000C94D2000C94D2000C94D200F8
:100040000C94D2000C94D2000C94D2000C94D200E8
:100050000C94D2000C947C040C94D2000C94D2002A
:100060000C94D2000C94D2006E616E00696E660032
:1000700000407A10F35A00A0724E18090010A5D45F
:10008000E80000E87648170000E40B54020000CABC
:100090009A3B000000E1F505000080969800000002
:1000A00040420F000000A086010000001027000061
:1000B0000000E803000000006400000000000A00E7
:1000C000000000000100000000002C76D888DC67EA
:1000D0004F0823DFC1DFAE59E1B1B796E5E3E45342
:1000E000C63AE651997696E8E6C28426EB898C9B5F
:1000F00062ED407C6FFCEFBC9C9F40F2BAA56FA5FF
:10010000F490055A2AF75C936B6CF9676DC11BFC80
:10011000E0E40D47FEF520E6B500D0ED902E03009B
:10012000943577050080841E080000204E0A0000E8
:1001300000C80C333333330F986E12831141EF8DA7
:100140002114893BE65516CFFEE6DB18D1844B38E7
:100150001BF77C1D901DA4BBE424203284725E2218
:100160008100C9F124ECA1E53D2711241FBECFEF8A
:10017000D8E0DEBFCDBF11E0A0E0B1E0E4E8F7E1F8
:1001800002C005900D92AC31B107D9F721E0ACE186
:10019000B1E001C01D92AC37B207E1F70E945604EE
:1001A0000C94C00B0C940000AFE0B0E0EAEDF0E07E
:1001B0000C94B4086C011B014A01FC0117821682E1
:1001C000838181FF34C39E012F5F3F4F3901F601C8
:1001D0009381F10193FD859193FF81911F01882304
:1001E00009F4D6C2853239F493FD859193FF81914C
:1001F0001F01853239F4B60190E00E94040B5401CE
:100200004501E5CFF12C512C00E0003238F48B325F
:1002100009F190F48032F9F0833209F107FD34C01E
:1002200020ED280F2A3020F506FF1BC0FAE0FF9EC4
:10023000200D1124F22E05C08D3279F0803371F734
:100240000160F10193FD859193FF81911F0181115F
:10025000DCCF1AC002600460F4CF0860F2CF006106
:10026000F0CF3AE0539E200D1124522E0062E9CFC8
:100270008E3221F406FD8CC20064E3CF8C3611F47B
:100280000068DFCF8836E9F29BEB980F933008F0D7
:100290005CC00061805E06FD02C046E0F42E102FB7
:1002A0001F73853609F058C0106417FF5EC08F2D8C
:1002B0009BE39F1508F48BE344244394480E27E006
:1002C000F40161917191819191915F01042DA301DC
:1002D0000E94160A4C01F981FC87F0FF03C00DE271
:1002E000F3FF07C00BE211FD04C0012F047012FDE3
:1002F00000E22C852C70E22E09F457C001119AC23D
:10030000F3E0E12CF515A0F483E0E52CE81A13FDE9
:1003100008C0B60180E290E00E94040BEA94E1106C
:10032000F8CF002329F0B601802F90E00E94040B43
:100330003C8528E6822E20E0922E33FD04C09CE608
:10034000892E90E0992E107122C09BE9980F93306E
:1003500008F034C10F7E9FCF863611F41068A5CF08
:10036000FF2009F4A2CFFA94A0CFE7E02F2DEF15DC
:1003700018F427E037E0F32E412CA2CF1111805260
:10038000B60190E00E94040B8FEF881A980AF401DE
:1003900084918111F3CFEE2009F432CFB60180E2CF
:1003A00090E00E94040BEA94F6CF17FF70C0480C4F
:1003B000FC85F4FF04C08A81813309F44A94141443
:1003C0000CF087C028E0241510F488E0482E85E062
:1003D00090E017FF06C0C40197FE02C090E080E0E5
:1003E000019601110196FF2031F02F2D30E02F5F93
:1003F0003F4F820F931F5816190619F014F0E52C81
:10040000E81A812F897011F4E11068C0002329F0E7
:10041000B601802F90E00E94040B13FD02C0E11092
:1004200064C017FF7DC0840197FE02C010E000E0A9
:10043000C401841991092C016F2D70E0EE27FF276C
:10044000E61BF70BFF87EE87801691060CF454C06D
:10045000401651060CF050C0F401E01BF10BE60D04
:10046000F71D8181015011092E853F850217130761
:100470000CF444C0B60190E00E94040B0F3F10073B
:1004800019F7B6018EE290E00E94040BDDCF16FD55
:100490009ECFEF2DF0E0E815F90534F03CEF831620
:1004A0003FEF93060CF010683296E60DF71D01C081
:1004B000FA94FF2019F082918033D1F317FF87CF90
:1004C000442443944F0CF814190431F02CF0F8181C
:1004D0007ECF442443947BCFF12C79CFB60180E2C8
:1004E00090E00E94040BEA948FCFB60180E390E085
:1004F0000E94040BEA9493CF80E3B4CF8016910658
:1005000041F49A81963350F4953319F49C8594FF05
:1005100005C0B60190E00E94040B3DCF81E3F9CF06
:100520008A81813319F0EC85EF7EEC87B60190E08B
:100530000E94040BFF20A9F0B6018EE290E00E9419
:10054000040BF394F394E2E001E00E0FE60DF72DB7
:10055000F11D8081B60190E00E94040BE02F0F1185
:10056000F3CF85E690E014FF02C085E490E0B60189
:100570000E94040B97FC06C081149104C1F4FC8511
:10058000F4FF15C09194819491088DE2B60190E03A
:100590000E94040B80E33AE08316910454F4B60100
:1005A00090E00E94040BB601C401C096B4CF8BE268
:1005B000EDCF8F5F2AE0821A9108EDCF8336B1F03C
:1005C000833759F1833509F055C0F401819091903A
:1005D0005F016F2D70E006FD02C06FEF7FEFC40179
:1005E0000E94EE0A9D878C8700680DC0540182E04E
:1005F000A80EB11CF4018081898321E030E03D87A1
:100600002C8743010F7703FD06C02C853D855216CC
:10061000130609F090F4E52C28C0F4018190919024
:100620005F016F2D70E006FD02C06FEF7FEFC40128
:100630000E94F90A9D878C87E5CFB60180E290E0A1
:100640000E94040B5A94E1CFF40107FD859107FF46
:1006500081914F01B60190E00E94040BE110EA94F1
:100660008C859D8501979D878C87EC85FD85EF2B7B
:1006700059F791CE843619F0893609F06EC0F4012D
:1006800007FF63C061917191819191915F01102F7A
:100690001F7697FF08C090958095709561957F4F64
:1006A0008F4F9F4F10682AE030E0A3010E94620B39
:1006B000882E8618982C012F16FF0AC00E7F8F14E3
:1006C00038F414FF04C012FD02C0012F0E7E9F2CCF
:1006D00004FF85C0FE01E80DF11D8081803309F023
:1006E00077C0097EF02FF870EF2E03FD87C000FF62
:1006F00081C0F82C951410F4F50CF91804FF84C08F
:10070000B60180E390E00E94040B02FF09C088E775
:1007100090E001FF02C088E590E0B6010E94040B62
:100720008F1408F47DC08A94082D10E00F5F1F4FCE
:10073000060D171DF80182918F01B60190E00E940D
:10074000040B06151705B1F726CE619171915F0173
:10075000072E000C880B990B9ACF102F853791F438
:100760001F7E2AE030E0F40117FF2CC061917191E7
:10077000819191915F01A3010E94620B882E8618DE
:100780001F7798CF197F8F36D1F048F4883591F0D4
:10079000F601868197812F96E2E10C94D00880378C
:1007A00039F08837A9F714FD146020E130E0DBCF81
:1007B0001061F9CF04FD166020E132E0D4CF28E0CB
:1007C00030E0D1CF619171915F0190E080E0D3CFB3
:1007D00002FD02C0939486CF9394939483CF802F8D
:1007E000867809F47FCFF6CFB60180E290E00E94D0
:1007F000040B93949514C0F3E12C80CFE52CE918F9
:10080000951408F47BCFF8CF802F867809F488CF31
:100810008BE201FF80E207FD8DE2B60190E07ECF22
:10082000B60180E390E00E94040BFA9479CF8FEF39
:100830009FEFB1CF24E0E12C251508F074CD84E0C2
:1008400064CDBC0180911C0190911D010C9438066F
:10085000CF93DF930F92CDB7DEB78983892F0E94A4
:100860003A0789810F90DF91CF910C943A0786E087
:1008700091E0809378019093790180937601909331
:1008800077010E942B070E94B50481E294E00E9448
:10089000E3040E94DB040E94E20584E190E00E94F0
:1008A000ED0590931D0180931C0108950F92CDB723
:1008B000DEB70E94370480911C0190911D010E94B7
:1008C0002606892B69F080911C0190911D010E94E0
:1008D0006C068983892F0E943A0789810E943A0712
:1008E0000E94E8052FEF89E698E121508040904072
:1008F000E1F700C00000DFCF1F920F920FB60F92FA
:1009000011242F933F934F935F936F937F938F9314
:100910009F93AF93BF93EF93FF930E94AF04BC01EB
:1009200080911C0190911D010E9438060E94A9042B
:10093000FF91EF91BF91AF919F918F917F916F91B7
:100940005F914F913F912F910F900FBE0F901F908D
:100950001895EAE7F0E080818064808308958091B3
:10096000780020917900922F0895ECE7F0E08081E3
:1009700080648083EAE780818760808380818068EB
:100980008083089590917C00907F90937C0090915B
:100990007C00892B80937C0080917A008064809316
:1009A0007A0080917A0086FDFCCF809178002091BA
:1009B0007900922F0895F894EAE7F0E0808188604A
:1009C00080837894089508958130C1F0823061F079
:1009D000811113C024B181E001C0880F6A95EAF744
:1009E0008095822384B908952AB181E001C0880FDF
:1009F0006A95EAF7809582238AB9089527B181E044
:100A000001C0880F6A95EAF78095822387B9089517
:100A10008130B1F0823059F0811111C084B121E0F0
:100A200001C0220F6A95EAF7822B84B908958AB132
:100A300021E001C0220F6A95EAF7822B8AB9089556
:100A400087B121E001C0220F6A95EAF7822B87B9AE
:100A50000895813001F1823081F081111BC024B1F1
:100A600081E001C0880F6A95EAF7982F909592234C
:100A700094B995B1892B85B908952AB181E001C057
:100A8000880F6A95EAF7982F909592239AB99BB1AF
:100A9000892B8BB9089527B181E001C0880F6A9531
:100AA000EAF7982F9095922397B998B1892B88B936
:100AB00008958130B1F0823059F0811111C085B1B3
:100AC00021E001C0220F6A95EAF7822B85B90895CB
:100AD0008BB121E001C0220F6A95EAF7822B8BB916
:100AE000089588B121E001C0220F6A95EAF7822BB0
:100AF00088B908958130C1F0823061F0811113C04E
:100B000025B181E001C0880F6A95EAF780958223BC
:100B100085B908952BB181E001C0880F6A95EAF785
:100B2000809582238BB9089528B181E001C0880F98
:100B30006A95EAF78095822388B908958130B1F0EB
:100B4000823059F0811111C085B121E001C0220F1E
:100B50006A95EAF7822785B908958BB121E001C033
:100B6000220F6A95EAF782278BB9089588B121E0B0
:100B700001C0220F6A95EAF7822788B9089581306B
:100B8000B1F0823059F081111BC083B190E002C0F6
:100B9000959587956A95E2F78170089589B190E0FF
:100BA00002C0959587956A95E2F78170089586B1A0
:100BB00090E002C0959587956A95E2F78170089557
:100BC0008FEF0895259A08952D9A08952D980895E8
:100BD00085B190E2892785B908950F931F93CF932C
:100BE000DF938C018EE090E00E94EB08EC0108831B
:100BF00019831A821B821C821D821E821F82188604
:100C000019861A861B86C801880F991F0E94EB0857
:100C10008C879D87CE01DF91CF911F910F91089511
:100C2000CF93DF93EC01892B71F0E881F981309744
:100C300051F0848595850E948509888199810E945B
:100C4000850918821982DF91CF910895009719F0D4
:100C5000FC01868197810895009731F0FC01608541
:100C6000718582859385089580E090E0BC010895A8
:100C7000FC01892BE1F082819381880F991FA48563
:100C8000B585A80FB91F6D937D9320813181828135
:100C900093810196B9010E947E08828393838681A5
:100CA00097812817390721F0019686839783089545
:100CB000848195810196B9010E947E088483958381
:100CC00080859185A285B3850196A11DB11D808780
:100CD0009187A287B3870895CF93DF9300D0CDB7D4
:100CE000DEB7FC01892B21F12681378121153105E1
:100CF000F9F084819581AC01440F551FA485B58519
:100D0000A40FB51F4D915D9149835A83019660816F
:100D100071810E947E088483958321503109268346
:100D2000378389819A810F900F90DF91CF91089539
:100D30004FEF49831A8289819A810F900F90DF913A
:100D4000CF910895FC01892BD9F08681978168178E
:100D50007907B0F42081318182819381861B970BC2
:100D60000197820F931FB9010E947E08880F991F77
:100D70000484F585E02DE80FF91F808191810895A5
:100D80008FEF90E008958F929F92AF92BF92EF9273
:100D9000FF920F931F93CF93DF9300D000D000D02A
:100DA000CDB7DEB77C018B0161157105B1F1CB01C7
:100DB000A0E0B0E069839A831B821C821D821E82A0
:100DC0004D0154016D817E81C7010E94A206880EEB
:100DD000991EA11CB11CAD81BE811196AD83BE834D
:100DE0000A171B0779F7B401C50129813A814B81A4
:100DF0005C810E949208C9010F900F900F900F9094
:100E00000F900F90DF91CF911F910F91FF90EF9076
:100E1000BF90AF909F908F90089580E090E0ECCFCE
:100E2000CF93DF93C0911E01D0911F01CC0FDD1F26
:100E30000E94BF0521E0811120E0C22BD06EC0933B
:100E40001E01D0931F0181E0C115D04F09F480E04D
:100E5000DF91CF9108958FB7F8941092C50093E079
:100E60009093C40098E99093C10096E09093C200DB
:100E70008FBF08959091C00095FFFCCF8093C6006E
:100E800008958091C00087FFFCCF8091C60008952F
:100E9000873099F08A3049F09091C00095FFFCCFDF
:100EA0008093C60090E080E008959091C00095FF87
:100EB000FCCF9DE09093C600EFCF20917A01309156
:100EC0007B0147E050E061E070E084E191E00E9446
:100ED000340B90E080E0089590E080E00895AF92B8
:100EE000BF92DF92EF92FF920F931F93CF93DF9306
:100EF000182F092FE0917001F09171013097C9F01E
:100F0000CF010196909371018093700180818A30A6
:100F100059F090E0DF91CF911F910F91FF90EF90EA
:100F2000DF90BF90AF900895109271011092700100
:100F3000F0CFC0E2D1E090E2E92E28E0F22E3DE0D1
:100F4000D32E2091C00027FFFCCF8091C00084FDEC
:100F5000D2C08091C00083FD6AC08091C6008D30F0
:100F600009F4B6C08A3009F4B3C0893009F47FC0EF
:100F700090EE980F9F3510F0803A58F091E0CF3600
:100F8000D90709F47AC08993612F702F0E9448070E
:100F9000D8CF853109F47EC000F5883009F44DC002
:100FA000823109F041C08091C00085FFFCCFD09212
:100FB000C60091E0C032D90721F218F280E2A82ED3
:100FC00081E0B82E612F702FF50181915F010E94A1
:100FD0004807CA15DB05B1F7B4CF873159F5E1E011
:100FE000C032DE0709F008F4ACCFFE01EF018291B8
:100FF000803209F4A6CF2091C00025FFFCCFF092EB
:10100000C6002091C00025FFFCCFE092C6002091D1
:10101000C00025FFFCCFF092C60081E0E032F80767
:1010200029F7C0E2D1E08DCF833009F08ACF8FEF6E
:101030009FEF70CF8F3709F084CF81E0C032D8079F
:1010400009F008F47ECF8091C00085FFFCCFF092BC
:10105000C6008091C00085FFFCCFE092C600809161
:10106000C00085FFFCCFF092C60021976ACF80E2D6
:1010700091E0CF36D90709F086CF20917A013091DF
:101080007B0147E050E061E070E084E191E00E9484
:10109000340B57CFF1E0C032DF0709F008F451CF2D
:1010A0002091C00025FFFCCFF092C6002091C00027
:1010B00025FFFCCFE092C6002091C00025FFFCCFA9
:1010C000F092C6002197F1E0C032DF0749F739CF2F
:1010D0008AE088838091C00085FFFCCF8DE08093FB
:1010E000C6008091C00085FFFCCF8AE08093C600D7
:1010F000E0E2F1E005CF8EEF9FEF0CCFAA1BBB1B08
:1011000051E107C0AA1FBB1FA617B70710F0A61B07
:10111000B70B881F991F5A95A9F780959095BC0128
:10112000CD010895A1E21A2EAA1BBB1BFD010DC023
:10113000AA1FBB1FEE1FFF1FA217B307E407F50787
:1011400020F0A21BB30BE40BF50B661F771F881F63
:10115000991F1A9469F760957095809590959B01F9
:10116000AC01BD01CF0108952F923F924F925F9243
:101170006F927F928F929F92AF92BF92CF92DF92A7
:10118000EF92FF920F931F93CF93DF93CDB7DEB70C
:10119000CA1BDB0B0FB6F894DEBF0FBECDBF0994A0
:1011A0002A88398848885F846E847D848C849B84F7
:1011B000AA84B984C884DF80EE80FD800C811B8105
:1011C000AA81B981CE0FD11D0FB6F894DEBF0FBE34
:1011D000CDBFED0108950F931F93CF93DF9382301E
:1011E000910510F482E090E0E0917401F0917501B6
:1011F00030E020E0B0E0A0E0309799F4211531050F
:1012000009F447C0281B390B24303105C0F58A8109
:101210009B816115710571F1FB0193838283FE014E
:1012200011C0408151810281138148175907F8F09C
:101230004817590799F4109761F012960C9312977A
:1012400013961C933296CF01DF91CF911F910F918E
:1012500008950093740110937501F4CF21153105A1
:1012600019F04217530718F49A01BD01EF01DF018D
:10127000F801C2CF9093750180937401D0CFFE0125
:10128000E20FF31F81939193225031093983288310
:10129000DACF2091720130917301232B41F4209118
:1012A0000201309103013093730120937201209168
:1012B0000001309101012115310541F42DB73EB7F0
:1012C0004091040150910501241B350B409172019E
:1012D000509173014217530708F0B5CF241B350B0B
:1012E0002817390708F4AFCFBC016E5F7F4F261770
:1012F000370708F4A8CF640F751F709373016093CC
:101300007201FA01819391939ECFCF93DF9300975F
:10131000E9F0FC01329713821282C0917401D091DE
:101320007501DE0130E020E02097A1F420813181B9
:10133000820F931F20917201309173012817390792
:1013400009F067C0F0937301E0937201DF91CF91D0
:101350000895DA01AE17BF0708F040C012964D910C
:101360005C9113979D014115510599F7D901139689
:10137000FC93EE9312974D915D91A40FB51FEA1760
:10138000FB0779F4808191810296840F951FD90122
:1013900011969C938E938281938113969C938E9346
:1013A0001297B0E0A0E08A819B810097B9F5FE0119
:1013B00081919191E80FF91F8091720190917301D1
:1013C0008E179F0719F6109761F51092750110920C
:1013D0007401D0937301C0937201B8CFB383A28319
:1013E00040815181840F951FA817B90771F44E5F92
:1013F0005F4F8D919C911197480F591F51834083E6
:1014000012968D919C91938382832115310509F069
:10141000ADCFF0937501E093740198CFDE01EC013C
:10142000C2CF13961C921E921297D3CF283008F089
:1014300027E03327DA01990F311D87FD916000966F
:101440006105710539F432602E5F3D9330E32A95D2
:10145000E1F708959F3F30F080387105610509F08C
:101460003C5F3C5F3D93913008F08068911DDF93B5
:10147000CF931F930F93FF92EF92192F987F96951A
:10148000E92F96959695E90FFF27E653FF4F992789
:101490003327EE24FF24A701E70105900894079461
:1014A00028F4360FE71EF81E491F511D660F771FDF
:1014B000881F991F0694A1F70590079428F4E70E5A
:1014C000F81E491F561FC11D770F881F991F661FE1
:1014D0000694A1F70590079428F4F80E491F561FAB
:1014E000C71FD11D880F991F661F771F0694A1F78C
:1014F0000590079420F4490F561FC71FD81F990F56
:10150000661F771F881F0694A9F78491109517709E
:1015100041F0D695C79557954795F794E7941A9556
:10152000C1F7E0E7F0E06894159015913591659169
:10153000959105907FE27395E118F10A430B560BE4
:10154000C90BD009C0F7E10CF11E431F561FC91F7C
:10155000D01D7EF4703311F48A95E6CFE8940150E3
:1015600030F0080F0AF40027021708F4202F239503
:10157000022F7A3328F079E37D932A95E9F710C09A
:101580007D932A9589F606949795679537951795D3
:101590001794E118F10A430B560BC90BD00998F0C8
:1015A00023957E9173957A3308F070E37C93201332
:1015B000B8F77E9170617D9330F0839571E37D93F0
:1015C00070E32A95E1F71124EF90FF900F911F919E
:1015D000CF91DF91992787FD90950895FC010590A3
:1015E000615070400110D8F7809590958E0F9F1F25
:1015F0000895FC016150704001900110D8F780956A
:1016000090958E0F9F1F08950F931F93CF93DF9395
:10161000182F092FEB018B8181FD09C01FEF0FEF00
:10162000812F902FDF91CF911F910F91089582FF0D
:1016300014C02E813F818C819D81281739073CF48D
:10164000E881F981CF0101969983888310838E8187
:101650009F8101969F838E83E3CFE885F985812F53
:101660000995892BA1F3DACFB0E0A0E0EAE3FBE033
:101670000C94BA086B015A018901D90113962C9177
:10168000D0E0C0E021FF18C0CA15DB05A9F07C013D
:10169000EC0CFD1C0CC0D8011896ED91FC91B80122
:1016A000DC018D914D010995892B31F4C4018E1512
:1016B0009F0589F72196E8CFCE01CDB7DEB7ECE0E4
:1016C0000C94D608FA01AA27283051F1203181F173
:1016D000E8946F936E7F6E5F7F4F8F4F9F4FAF4F3A
:1016E000B1E03ED0B4E03CD0670F781F891F9A1F4D
:1016F000A11D680F791F8A1F911DA11D6A0F711D01
:10170000811D911DA11D20D009F468943F912AE00C
:10171000269F11243019305D3193DEF6CF010895F4
:10172000462F4770405D4193B3E00FD0C9F7F6CF25
:10173000462F4F70405D4A3318F0495D31FD4052ED
:10174000419302D0A9F7EACFB4E0A6959795879583
:1017500077956795BA95C9F7009761057105089562
:101760009B01AC010A2E069457954795379527950E
:10177000BA95C9F7620F731F841F951FA01D0895A6
:04178000F894FFCF0B
:1017840000007C0120000000000300000000480766
:0C1794006F0700002A72696E672A0A00C5
:00000001FF
