:100000000C94B5000C94D2000C94D2000C94D20045
:100010000C94D2000C94D2000C94D2000C94D20018
:100020000C94D2000C94D2000C94D2000C94D20008
:100030000C94D2000C94D2000C94D2000C94D200F8
:100040000C94D2000C94D2000C94D2000C94D200E8
:100050000C94D2000C94D2000C94D2000C94D200D8
:100060000C94D2000C94D2006E616E00696E660032
:1000700000407A10F35A00A0724E18090010A5D45F
:10008000E80000E87648170000E40B54020000CABC
:100090009A3B000000E1F505000080969800000002
:1000A00040420F000000A086010000001027000061
:1000B0000000E803000000006400000000000A00E7
:1000C000000000000100000000002C76D888DC67EA
:1000D0004F0823DFC1DFAE59E1B1B796E5E3E45342
:1000E000C63AE651997696E8E6C28426EB898C9B5F
:1000F00062ED407C6FFCEFBC9C9F40F2BAA56FA5FF
:10010000F490055A2AF75C936B6CF9676DC11BFC80
:10011000E0E40D47FEF520E6B500D0ED902E03009B
:10012000943577050080841E080000204E0A0000E8
:1001300000C80C333333330F986E12831141EF8DA7
:100140002114893BE65516CFFEE6DB18D1844B38E7
:100150001BF77C1D901DA4BBE424203284725E2218
:100160008100C9F124ECA1E53D2711241FBECFEF8A
:10017000D8E0DEBFCDBF11E0A0E0B1E0ECE5F2E1F8
:1001800002C005900D92A837B107D9F721E0A8E782
:10019000B1E001C01D92A23DB207E1F70E94430405
:1001A0000C942C090C940000AFE0B0E0EAEDF0E014
:1001B0000C9409076C011B014A01FC01178216828D
:1001C000838181FF34C39E012F5F3F4F3901F601C8
:1001D0009381F10193FD859193FF81911F01882304
:1001E00009F4D6C2853239F493FD859193FF81914C
:1001F0001F01853239F4B60190E00E942E085401A7
:100200004501E5CFF12C512C00E0003238F48B325F
:1002100009F190F48032F9F0833209F107FD34C01E
:1002200020ED280F2A3020F506FF1BC0FAE0FF9EC4
:10023000200D1124F22E05C08D3279F0803371F734
:100240000160F10193FD859193FF81911F0181115F
:10025000DCCF1AC002600460F4CF0860F2CF006106
:10026000F0CF3AE0539E200D1124522E0062E9CFC8
:100270008E3221F406FD8CC20064E3CF8C3611F47B
:100280000068DFCF8836E9F29BEB980F933008F0D7
:100290005CC00061805E06FD02C046E0F42E102FB7
:1002A0001F73853609F058C0106417FF5EC08F2D8C
:1002B0009BE39F1508F48BE344244394480E27E006
:1002C000F40161917191819191915F01042DA301DC
:1002D0000E9440074C01F981FC87F0FF03C00DE24A
:1002E000F3FF07C00BE211FD04C0012F047012FDE3
:1002F00000E22C852C70E22E09F457C001119AC23D
:10030000F3E0E12CF515A0F483E0E52CE81A13FDE9
:1003100008C0B60180E290E00E942E08EA94E11045
:10032000F8CF002329F0B601802F90E00E942E081C
:100330003C8528E6822E20E0922E33FD04C09CE608
:10034000892E90E0992E107122C09BE9980F93306E
:1003500008F034C10F7E9FCF863611F41068A5CF08
:10036000FF2009F4A2CFFA94A0CFE7E02F2DEF15DC
:1003700018F427E037E0F32E412CA2CF1111805260
:10038000B60190E00E942E088FEF881A980AF401B7
:1003900084918111F3CFEE2009F432CFB60180E2CF
:1003A00090E00E942E08EA94F6CF17FF70C0480C28
:1003B000FC85F4FF04C08A81813309F44A94141443
:1003C0000CF087C028E0241510F488E0482E85E062
:1003D00090E017FF06C0C40197FE02C090E080E0E5
:1003E000019601110196FF2031F02F2D30E02F5F93
:1003F0003F4F820F931F5816190619F014F0E52C81
:10040000E81A812F897011F4E11068C0002329F0E7
:10041000B601802F90E00E942E0813FD02C0E1106B
:1004200064C017FF7DC0840197FE02C010E000E0A9
:10043000C401841991092C016F2D70E0EE27FF276C
:10044000E61BF70BFF87EE87801691060CF454C06D
:10045000401651060CF050C0F401E01BF10BE60D04
:10046000F71D8181015011092E853F850217130761
:100470000CF444C0B60190E00E942E080F3F100714
:1004800019F7B6018EE290E00E942E08DDCF16FD2E
:100490009ECFEF2DF0E0E815F90534F03CEF831620
:1004A0003FEF93060CF010683296E60DF71D01C081
:1004B000FA94FF2019F082918033D1F317FF87CF90
:1004C000442443944F0CF814190431F02CF0F8181C
:1004D0007ECF442443947BCFF12C79CFB60180E2C8
:1004E00090E00E942E08EA948FCFB60180E390E05E
:1004F0000E942E08EA9493CF80E3B4CF8016910631
:1005000041F49A81963350F4953319F49C8594FF05
:1005100005C0B60190E00E942E083DCF81E3F9CFDF
:100520008A81813319F0EC85EF7EEC87B60190E08B
:100530000E942E08FF20A9F0B6018EE290E00E94F2
:100540002E08F394F394E2E001E00E0FE60DF72D90
:10055000F11D8081B60190E00E942E08E02F0F115E
:10056000F3CF85E690E014FF02C085E490E0B60189
:100570000E942E0897FC06C081149104C1F4FC85EA
:10058000F4FF15C09194819491088DE2B60190E03A
:100590000E942E0880E33AE08316910454F4B601D9
:1005A00090E00E942E08B601C401C096B4CF8BE241
:1005B000EDCF8F5F2AE0821A9108EDCF8336B1F03C
:1005C000833759F1833509F055C0F401819091903A
:1005D0005F016F2D70E006FD02C06FEF7FEFC40179
:1005E0000E9418089D878C8700680DC0540182E026
:1005F000A80EB11CF4018081898321E030E03D87A1
:100600002C8743010F7703FD06C02C853D855216CC
:10061000130609F090F4E52C28C0F4018190919024
:100620005F016F2D70E006FD02C06FEF7FEFC40128
:100630000E9423089D878C87E5CFB60180E290E079
:100640000E942E085A94E1CFF40107FD859107FF1F
:1006500081914F01B60190E00E942E08E110EA94CA
:100660008C859D8501979D878C87EC85FD85EF2B7B
:1006700059F791CE843619F0893609F06EC0F4012D
:1006800007FF63C061917191819191915F01102F7A
:100690001F7697FF08C090958095709561957F4F64
:1006A0008F4F9F4F10682AE030E0A3010E94CE08D0
:1006B000882E8618982C012F16FF0AC00E7F8F14E3
:1006C00038F414FF04C012FD02C0012F0E7E9F2CCF
:1006D00004FF85C0FE01E80DF11D8081803309F023
:1006E00077C0097EF02FF870EF2E03FD87C000FF62
:1006F00081C0F82C951410F4F50CF91804FF84C08F
:10070000B60180E390E00E942E0802FF09C088E74E
:1007100090E001FF02C088E590E0B6010E942E083B
:100720008F1408F47DC08A94082D10E00F5F1F4FCE
:10073000060D171DF80182918F01B60190E00E940D
:100740002E0806151705B1F726CE619171915F014C
:10075000072E000C880B990B9ACF102F853791F438
:100760001F7E2AE030E0F40117FF2CC061917191E7
:10077000819191915F01A3010E94CE08882E861875
:100780001F7798CF197F8F36D1F048F4883591F0D4
:10079000F601868197812F96E2E10C942507803738
:1007A00039F08837A9F714FD146020E130E0DBCF81
:1007B0001061F9CF04FD166020E132E0D4CF28E0CB
:1007C00030E0D1CF619171915F0190E080E0D3CFB3
:1007D00002FD02C0939486CF9394939483CF802F8D
:1007E000867809F47FCFF6CFB60180E290E00E94D0
:1007F0002E0893949514C0F3E12C80CFE52CE918D2
:10080000951408F47BCFF8CF802F867809F488CF31
:100810008BE201FF80E207FD8DE2B60190E07ECF22
:10082000B60180E390E00E942E08FA9479CF8FEF12
:100830009FEFB1CF24E0E12C251508F074CD84E0C2
:1008400064CD80E091E08093CC019093CD018093C2
:10085000CE019093CF018EE091E00E94A2080E9409
:1008600090058FE191E00E94A20867E082E00E947B
:10087000D7048FE291E00E94A2080E946C0487E4F2
:1008800091E00C94A2080E94210407E511E080E0A9
:100890000E947904EC01CE3E82E0D807D0F40E9499
:1008A000920567E082E00E949B058111F0CFDF9303
:1008B000CF931F930F930E948C080F900F900F906F
:1008C0000F9080E00E947904EC01CE3E82E0D807D0
:1008D00030F30E949405E5CFECE7F0E0808180647E
:1008E0008083EAE78081876080838081806880835D
:1008F000089590917C00907F90937C0090917C0073
:10090000892B80937C0080917A00806480937A00A8
:1009100080917A0086FDFCCF80917800209179004B
:10092000922F08958130C1F0823061F0811113C09F
:1009300024B181E001C0880F6A95EAF7809582238F
:1009400084B908952AB181E001C0880F6A95EAF759
:10095000809582238AB9089527B181E001C0880F6C
:100960006A95EAF78095822387B908958130B1F0BE
:10097000823059F0811111C084B121E001C0220FF1
:100980006A95EAF7822B84B908958AB121E001C003
:10099000220F6A95EAF7822B8AB9089587B121E080
:1009A00001C0220F6A95EAF7822B87B9089581303A
:1009B00001F1823081F081111BC024B181E001C0BE
:1009C000880F6A95EAF7982F9095922394B995B17C
:1009D000892B85B908952AB181E001C0880F6A95F5
:1009E000EAF7982F909592239AB99BB1892B8BB9EE
:1009F000089527B181E001C0880F6A95EAF7982F22
:100A00009095922397B998B1892B88B90895813030
:100A1000B1F0823059F0811111C085B121E001C0DF
:100A2000220F6A95EAF7822B85B908958BB121E0F0
:100A300001C0220F6A95EAF7822B8BB9089588B11D
:100A400021E001C0220F6A95EAF7822B88B9089548
:100A50008130C1F0823061F0811113C025B181E095
:100A600001C0880F6A95EAF78095822385B90895B9
:100A70002BB181E001C0880F6A95EAF78095822347
:100A80008BB9089528B181E001C0880F6A95EAF713
:100A90008095822388B908958130B1F0823059F071
:100AA000811111C085B121E001C0220F6A95EAF7DA
:100AB000822785B908958BB121E001C0220F6A9584
:100AC000EAF782278BB9089588B121E001C0220F8F
:100AD0006A95EAF7822788B908958130B1F08230AB
:100AE00059F081111BC083B190E002C095958795A4
:100AF0006A95E2F78170089589B190E002C09595FA
:100B000087956A95E2F78170089586B190E002C0FA
:100B1000959587956A95E2F7817008958FEF08950E
:100B2000259A08952D9A08952D98089585B190E2FB
:100B3000892785B90895CF93DF93C0917801D0912B
:100B40007901CC0FDD1F0E946D0521E0811120E0AD
:100B5000C22BD06EC0937801D093790181E0C1158A
:100B6000D04F09F480E0DF91CF9108958FB7F894CA
:100B70001092C50093E09093C40098E99093C1004F
:100B800096E09093C2008FBF08959091C00095FFAA
:100B9000FCCF8093C60008958091C00087FFFCCFF2
:100BA0008091C6000895873099F08A3049F090917D
:100BB000C00095FFFCCF8093C60090E080E00895D0
:100BC0009091C00095FFFCCF9DE09093C600EFCFC1
:100BD0002091D0013091D10147E050E061E070E018
:100BE00080E791E00E945E0890E080E0089590E048
:100BF00080E00895AF92BF92DF92EF92FF920F9341
:100C00001F93CF93DF93182F092FE091CA01F09122
:100C1000CB013097C9F0CF0101969093CB0180931F
:100C2000CA0180818A3059F090E0DF91CF911F9105
:100C30000F91FF90EF90DF90BF90AF9008951092CA
:100C4000CB011092CA01F0CFCAE7D1E090E2E92EC1
:100C500028E0F22E3DE0D32E2091C00027FFFCCFEC
:100C60008091C00084FDD2C08091C00083FD6AC025
:100C70008091C6008D3009F4B6C08A3009F4B3C043
:100C8000893009F47FC090EE980F9F3510F0803ABC
:100C900058F091E0C93CD90709F47AC08993612FD3
:100CA000702F0E94D305D8CF853109F47EC000F59E
:100CB000883009F44DC0823109F041C08091C000F4
:100CC00085FFFCCFD092C60091E0CA37D90721F248
:100CD00018F28AE7A82E81E0B82E612F702FF50157
:100CE00081915F010E94D305CA15DB05B1F7B4CF2E
:100CF000873159F5E1E0CA37DE0709F008F4ACCFD7
:100D0000FE01EF018291803209F4A6CF2091C0004C
:100D100025FFFCCFF092C6002091C00025FFFCCF3C
:100D2000E092C6002091C00025FFFCCFF092C600E3
:100D300081E0EA37F80729F7CAE7D1E08DCF8330A1
:100D400009F08ACF8FEF9FEF70CF8F3709F084CFF4
:100D500081E0CA37D80709F008F47ECF8091C0003F
:100D600085FFFCCFF092C6008091C00085FFFCCFCC
:100D7000E092C6008091C00085FFFCCFF092C600D3
:100D800021976ACF80E291E0C93CD90709F086CF6C
:100D90002091D0013091D10147E050E061E070E056
:100DA00080E791E00E945E0857CFF1E0CA37DF0785
:100DB00009F008F451CF2091C00025FFFCCFF0923C
:100DC000C6002091C00025FFFCCFE092C600209114
:100DD000C00025FFFCCFF092C6002197F1E0CA3792
:100DE000DF0749F739CF8AE088838091C00085FF0B
:100DF000FCCF8DE08093C6008091C00085FFFCCFC2
:100E00008AE08093C600EAE7F1E005CF8EEF9FEF1E
:100E10000CCF2F923F924F925F926F927F928F9260
:100E20009F92AF92BF92CF92DF92EF92FF920F9379
:100E30001F93CF93DF93CDB7DEB7CA1BDB0B0FB683
:100E4000F894DEBF0FBECDBF09942A883988488840
:100E50005F846E847D848C849B84AA84B984C884D6
:100E6000DF80EE80FD800C811B81AA81B981CE0FCD
:100E7000D11D0FB6F894DEBF0FBECDBFED010895B2
:100E8000283008F027E03327DA01990F311D87FD5C
:100E9000916000966105710539F432602E5F3D93D3
:100EA00030E32A95E1F708959F3F30F080387105CF
:100EB000610509F03C5F3C5F3D93913008F080682C
:100EC000911DDF93CF931F930F93FF92EF92192FF2
:100ED000987F9695E92F96959695E90FFF27E6530B
:100EE000FF4F99273327EE24FF24A701E701059040
:100EF0000894079428F4360FE71EF81E491F511D69
:100F0000660F771F881F991F0694A1F70590079415
:100F100028F4E70EF81E491F561FC11D770F881FC2
:100F2000991F661F0694A1F70590079428F4F80E00
:100F3000491F561FC71FD11D880F991F661F771F96
:100F40000694A1F70590079420F4490F561FC71F78
:100F5000D81F990F661F771F881F0694A9F78491E1
:100F60001095177041F0D695C79557954795F7940A
:100F7000E7941A95C1F7E0E7F0E0689415901591B1
:100F800035916591959105907FE27395E118F10A8D
:100F9000430B560BC90BD009C0F7E10CF11E431FE0
:100FA000561FC91FD01D7EF4703311F48A95E6CF09
:100FB000E894015030F0080F0AF40027021708F4F3
:100FC000202F2395022F7A3328F079E37D932A95F9
:100FD000E9F710C07D932A9589F606949795679551
:100FE000379517951794E118F10A430B560BC90B67
:100FF000D00998F023957E9173957A3308F070E3C9
:101000007C932013B8F77E9170617D9330F08395C7
:1010100071E37D9370E32A95E1F71124EF90FF903F
:101020000F911F91CF91DF91992787FD909508959A
:10103000FC010590615070400110D8F780959095A3
:101040008E0F9F1F0895FC016150704001900110A8
:10105000D8F7809590958E0F9F1F08950F931F933B
:10106000CF93DF93182F092FEB018B8181FD09C0EE
:101070001FEF0FEF812F902FDF91CF911F910F91D5
:10108000089582FF14C02E813F818C819D81281795
:1010900039073CF4E881F981CF010196998388836F
:1010A00010838E819F8101969F838E83E3CFE88595
:1010B000F985812F0995892BA1F3DACFB0E0A0E063
:1010C000E4E6F8E00C940F076B015A018901D9019D
:1010D00013962C91D0E0C0E021FF18C0CA15DB05A3
:1010E000A9F07C01EC0CFD1C0CC0D8011896ED9108
:1010F000FC91B801DC018D914D010995892B31F4EA
:10110000C4018E159F0589F72196E8CFCE01CDB792
:10111000DEB7ECE00C942B07B0E0A0E0E2E9F8E0E9
:101120000C941907AE014B5F5F4FFA016191719109
:10113000AF018091CE019091CF010E94D400E2E0F6
:101140000C9435070F931F93CF93DF93E091CE015B
:10115000F091CF01238110E000E021FD0EC00FEFE0
:101160001FEFC801DF91CF911F910F91089509954D
:10117000892B11F00FEF1FEFCE01EC0189916091E7
:10118000CE017091CF01DB011896ED91FC91811198
:10119000EECF8AE00995892B21F3E1CFFA01AA2746
:1011A000283051F1203181F1E8946F936E7F6E5FAA
:1011B0007F4F8F4F9F4FAF4FB1E03ED0B4E03CD058
:1011C000670F781F891F9A1FA11D680F791F8A1F3B
:1011D000911DA11D6A0F711D811D911DA11D20D0A2
:1011E00009F468943F912AE0269F11243019305D5C
:1011F0003193DEF6CF010895462F4770405D41934D
:10120000B3E00FD0C9F7F6CF462F4F70405D4A3399
:1012100018F0495D31FD4052419302D0A9F7EACF61
:10122000B4E0A6959795879577956795BA95C9F790
:1012300000976105710508959B01AC010A2E069483
:101240005795479537952795BA95C9F7620F731F3C
:0C125000841F951FA01D0895F894FFCF87
:10125C000000000300000000D305FA050000554112
:10126C00525420696E697469616C69736564004CD1
:10127C00454420696E697469616C697365640050DA
:10128C007573682D627574746F6E20696E697469FC
:10129C00616C697365640041444320696E697469CB
:1012AC00616C697365640050686F746F7265736903
:1012BC0073746F722076616C75653A2025750A001F
:0812CC002A72696E672A0A000C
:00000001FF
