:100000000C94B5000C94D2000C94D2000C94D20045
:100010000C94D2000C94D2000C94D2000C94D20018
:100020000C94D2000C94D2000C94D2000C94D20008
:100030000C94D2000C94D2000C94D2000C94D200F8
:100040000C94D2000C94D2000C94D2000C94D200E8
:100050000C94D2000C9461040C94D2000C94D20045
:100060000C94D2000C94D2006E616E00696E660032
:1000700000407A10F35A00A0724E18090010A5D45F
:10008000E80000E87648170000E40B54020000CABC
:100090009A3B000000E1F505000080969800000002
:1000A00040420F000000A086010000001027000061
:1000B0000000E803000000006400000000000A00E7
:1000C000000000000100000000002C76D888DC67EA
:1000D0004F0823DFC1DFAE59E1B1B796E5E3E45342
:1000E000C63AE651997696E8E6C28426EB898C9B5F
:1000F00062ED407C6FFCEFBC9C9F40F2BAA56FA5FF
:10010000F490055A2AF75C936B6CF9676DC11BFC80
:10011000E0E40D47FEF520E6B500D0ED902E03009B
:10012000943577050080841E080000204E0A0000E8
:1001300000C80C333333330F986E12831141EF8DA7
:100140002114893BE65516CFFEE6DB18D1844B38E7
:100150001BF77C1D901DA4BBE424203284725E2218
:100160008100C9F124ECA1E53D2711241FBECFEF8A
:10017000D8E0DEBFCDBF21E0A6E0B1E001C01D9216
:10018000A031B207E1F711E0A0E0B1E0ECEFFAE155
:1001900002C005900D92A630B107D9F70E94400425
:1001A0000C947C0D0C940000AFE0B0E0EAEDF0E0C0
:1001B0000C949C086C011B014A01FC0117821682F9
:1001C000838181FF34C39E012F5F3F4F3901F601C8
:1001D0009381F10193FD859193FF81911F01882304
:1001E00009F4D6C2853239F493FD859193FF81914C
:1001F0001F01853239F4B60190E00E94EE0C5401E3
:100200004501E5CFF12C512C00E0003238F48B325F
:1002100009F190F48032F9F0833209F107FD34C01E
:1002200020ED280F2A3020F506FF1BC0FAE0FF9EC4
:10023000200D1124F22E05C08D3279F0803371F734
:100240000160F10193FD859193FF81911F0181115F
:10025000DCCF1AC002600460F4CF0860F2CF006106
:10026000F0CF3AE0539E200D1124522E0062E9CFC8
:100270008E3221F406FD8CC20064E3CF8C3611F47B
:100280000068DFCF8836E9F29BEB980F933008F0D7
:100290005CC00061805E06FD02C046E0F42E102FB7
:1002A0001F73853609F058C0106417FF5EC08F2D8C
:1002B0009BE39F1508F48BE344244394480E27E006
:1002C000F40161917191819191915F01042DA301DC
:1002D0000E94000C4C01F981FC87F0FF03C00DE285
:1002E000F3FF07C00BE211FD04C0012F047012FDE3
:1002F00000E22C852C70E22E09F457C001119AC23D
:10030000F3E0E12CF515A0F483E0E52CE81A13FDE9
:1003100008C0B60180E290E00E94EE0CEA94E11081
:10032000F8CF002329F0B601802F90E00E94EE0C58
:100330003C8528E6822E20E0922E33FD04C09CE608
:10034000892E90E0992E107122C09BE9980F93306E
:1003500008F034C10F7E9FCF863611F41068A5CF08
:10036000FF2009F4A2CFFA94A0CFE7E02F2DEF15DC
:1003700018F427E037E0F32E412CA2CF1111805260
:10038000B60190E00E94EE0C8FEF881A980AF401F3
:1003900084918111F3CFEE2009F432CFB60180E2CF
:1003A00090E00E94EE0CEA94F6CF17FF70C0480C64
:1003B000FC85F4FF04C08A81813309F44A94141443
:1003C0000CF087C028E0241510F488E0482E85E062
:1003D00090E017FF06C0C40197FE02C090E080E0E5
:1003E000019601110196FF2031F02F2D30E02F5F93
:1003F0003F4F820F931F5816190619F014F0E52C81
:10040000E81A812F897011F4E11068C0002329F0E7
:10041000B601802F90E00E94EE0C13FD02C0E110A7
:1004200064C017FF7DC0840197FE02C010E000E0A9
:10043000C401841991092C016F2D70E0EE27FF276C
:10044000E61BF70BFF87EE87801691060CF454C06D
:10045000401651060CF050C0F401E01BF10BE60D04
:10046000F71D8181015011092E853F850217130761
:100470000CF444C0B60190E00E94EE0C0F3F100750
:1004800019F7B6018EE290E00E94EE0CDDCF16FD6A
:100490009ECFEF2DF0E0E815F90534F03CEF831620
:1004A0003FEF93060CF010683296E60DF71D01C081
:1004B000FA94FF2019F082918033D1F317FF87CF90
:1004C000442443944F0CF814190431F02CF0F8181C
:1004D0007ECF442443947BCFF12C79CFB60180E2C8
:1004E00090E00E94EE0CEA948FCFB60180E390E09A
:1004F0000E94EE0CEA9493CF80E3B4CF801691066D
:1005000041F49A81963350F4953319F49C8594FF05
:1005100005C0B60190E00E94EE0C3DCF81E3F9CF1B
:100520008A81813319F0EC85EF7EEC87B60190E08B
:100530000E94EE0CFF20A9F0B6018EE290E00E942E
:10054000EE0CF394F394E2E001E00E0FE60DF72DCC
:10055000F11D8081B60190E00E94EE0CE02F0F119A
:10056000F3CF85E690E014FF02C085E490E0B60189
:100570000E94EE0C97FC06C081149104C1F4FC8526
:10058000F4FF15C09194819491088DE2B60190E03A
:100590000E94EE0C80E33AE08316910454F4B60115
:1005A00090E00E94EE0CB601C401C096B4CF8BE27D
:1005B000EDCF8F5F2AE0821A9108EDCF8336B1F03C
:1005C000833759F1833509F055C0F401819091903A
:1005D0005F016F2D70E006FD02C06FEF7FEFC40179
:1005E0000E94D80C9D878C8700680DC0540182E062
:1005F000A80EB11CF4018081898321E030E03D87A1
:100600002C8743010F7703FD06C02C853D855216CC
:10061000130609F090F4E52C28C0F4018190919024
:100620005F016F2D70E006FD02C06FEF7FEFC40128
:100630000E94E30C9D878C87E5CFB60180E290E0B5
:100640000E94EE0C5A94E1CFF40107FD859107FF5B
:1006500081914F01B60190E00E94EE0CE110EA9406
:100660008C859D8501979D878C87EC85FD85EF2B7B
:1006700059F791CE843619F0893609F06EC0F4012D
:1006800007FF63C061917191819191915F01102F7A
:100690001F7697FF08C090958095709561957F4F64
:1006A0008F4F9F4F10682AE030E0A3010E941E0D7B
:1006B000882E8618982C012F16FF0AC00E7F8F14E3
:1006C00038F414FF04C012FD02C0012F0E7E9F2CCF
:1006D00004FF85C0FE01E80DF11D8081803309F023
:1006E00077C0097EF02FF870EF2E03FD87C000FF62
:1006F00081C0F82C951410F4F50CF91804FF84C08F
:10070000B60180E390E00E94EE0C02FF09C088E78A
:1007100090E001FF02C088E590E0B6010E94EE0C77
:100720008F1408F47DC08A94082D10E00F5F1F4FCE
:10073000060D171DF80182918F01B60190E00E940D
:10074000EE0C06151705B1F726CE619171915F0188
:10075000072E000C880B990B9ACF102F853791F438
:100760001F7E2AE030E0F40117FF2CC061917191E7
:10077000819191915F01A3010E941E0D882E861820
:100780001F7798CF197F8F36D1F048F4883591F0D4
:10079000F601868197812F96E2E10C94B8088037A4
:1007A00039F08837A9F714FD146020E130E0DBCF81
:1007B0001061F9CF04FD166020E132E0D4CF28E0CB
:1007C00030E0D1CF619171915F0190E080E0D3CFB3
:1007D00002FD02C0939486CF9394939483CF802F8D
:1007E000867809F47FCFF6CFB60180E290E00E94D0
:1007F000EE0C93949514C0F3E12C80CFE52CE9180E
:10080000951408F47BCFF8CF802F867809F488CF31
:100810008BE201FF80E207FD8DE2B60190E07ECF22
:10082000B60180E390E00E94EE0CFA9479CF8FEF4E
:100830009FEFB1CF24E0E12C251508F074CD84E0C2
:1008400064CDBC0180910601909107010C941107C1
:100850000E94DE050E949A0481E00E94850481E2E4
:1008600094E00E94CE040E94C0040E94A80684E185
:1008700090E00E94C60690930701809306010895B8
:100880000E94280480910601909107016BE070E0BE
:100890000E947B078F3F9105A9F3809106019091FB
:1008A00007016AE070E00E94E9079C01343010F013
:1008B0002FEF33E030938900209388000E94E205F7
:1008C000E1CF1F920F920FB60F9211242F933F93F7
:1008D0004F935F936F937F938F939F93AF93BF9348
:1008E000EF93FF930E94D304FF91EF91BF91AF91DB
:1008F0009F918F917F916F915F914F913F912F9138
:100900000F900FBE0F901F901895ECE7F0E09081CC
:10091000907F90839081982B90830895EAE7F0E090
:10092000808180648083089580917800209179008F
:10093000922F0895ECE7F0E0808180648083EAE7FD
:100940008081876080838081806880830895909112
:100950007C00907F90937C0090917C00892B809309
:100960007C0080917A00806480937A0080917A0084
:1009700086FDFCCF8091780020917900922F089518
:10098000F894EAE7F0E080818860808378940895A5
:10099000EAE7F0E08081877F8083089580930801F3
:1009A000909309010895E0910801F09109013097B1
:1009B00031F08091780020917900922F0994089568
:1009C0008130C1F0823061F0811113C024B181E027
:1009D00001C0880F6A95EAF78095822384B908954B
:1009E0002AB181E001C0880F6A95EAF780958223D9
:1009F0008AB9089527B181E001C0880F6A95EAF7A6
:100A00008095822387B908958130B1F0823059F002
:100A1000811111C084B121E001C0220F6A95EAF76B
:100A2000822B84B908958AB121E001C0220F6A9512
:100A3000EAF7822B8AB9089587B121E001C0220F1D
:100A40006A95EAF7822B87B90895813001F18230E7
:100A500081F081111BC024B181E001C0880F6A952B
:100A6000EAF7982F9095922394B995B1892B85B97F
:100A700008952AB181E001C0880F6A95EAF7982F9E
:100A8000909592239AB99BB1892B8BB9089527B180
:100A900081E001C0880F6A95EAF7982F909592231C
:100AA00097B998B1892B88B908958130B1F0823017
:100AB00059F0811111C085B121E001C0220F6A9562
:100AC000EAF7822B85B908958BB121E001C0220F8E
:100AD0006A95EAF7822B8BB9089588B121E001C0AD
:100AE000220F6A95EAF7822B88B908958130C1F008
:100AF000823061F0811113C025B181E001C0880FFF
:100B00006A95EAF78095822385B908952BB181E033
:100B100001C0880F6A95EAF7809582238BB9089502
:100B200028B181E001C0880F6A95EAF78095822399
:100B300088B908958130B1F0823059F0811111C027
:100B400085B121E001C0220F6A95EAF7822785B9B5
:100B500008958BB121E001C0220F6A95EAF7822740
:100B60008BB9089588B121E001C0220F6A95EAF798
:100B7000822788B908958130B1F0823059F081110F
:100B80001BC083B190E002C0959587956A95E2F706
:100B90008170089589B190E002C0959587956A9516
:100BA000E2F78170089586B190E002C0959587952F
:100BB0006A95E2F7817008958FEF0895219A08955C
:100BC000299A08952998089585B192E0892785B9D1
:100BD0000895CF93DF9300D000D0CDB7DEB7BC012E
:100BE00080E090E00E944A0940E050E09A010E94B3
:100BF00087099B01AC0160E070E08AE794E40E9401
:100C0000D80869837A838B839C839B01AC0160E065
:100C100074E284E79BE40E94D8080E94880A20E0DE
:100C20003FEF4FE757E40E94D308181674F0809105
:100C3000810081608093810080E090E00F900F90B0
:100C40000F900F90DF91CF91089520E030E040E0C9
:100C500051E469817A818B819C810E941B0A9B01EE
:100C6000AC0160E074E284E79BE40E94D8080E9433
:100C7000880A20E03FEF4FE757E40E94D308181698
:100C800034F080918100826080938100D5CF20E094
:100C900030E040E852E469817A818B819C810E9436
:100CA0001B0A9B01AC0160E074E284E79BE40E94B4
:100CB000D8080E94880A20E03FEF4FE757E40E94DF
:100CC000D308181614F520E030E040E853E46981B9
:100CD0007A818B819C810E941B0A9B01AC0160E0A0
:100CE00074E284E79BE40E94D8080E94880A20E00E
:100CF0003FEF4FE757E40E94D308181664F0809145
:100D0000810084608093810097CF8091810083600F
:100D10008093810091CF80918100856080938100D4
:100D20008BCF9C01F89410928000E1E8F0E01082F3
:100D3000908198609083EFE6908192609083C901E2
:100D40000E94E90510928900109288007894089515
:100D5000F894E0E8F0E01082A1E8B0E01C92808115
:100D6000836080838C918B608C938081806880838A
:100D70008FEF93E090938900809388007894089592
:100D8000E1E8F0E08081887F808308950F931F93CE
:100D9000CF93DF938C018EE090E00E94D50AEC01A6
:100DA000088319831A821B821C821D821E821F8265
:100DB000188619861A861B86C801880F991F0E94FB
:100DC000D50A8C879D87CE01DF91CF911F910F911E
:100DD0000895CF93DF93EC01892B71F0E881F981BD
:100DE000309751F0848595850E946F0B8881998199
:100DF0000E946F0B18821982DF91CF91089500979E
:100E000019F0FC01868197810895009731F0FC016B
:100E10006085718582859385089580E090E0BC01AE
:100E20000895FC01892BE1F082819381880F991F3D
:100E3000A485B585A80FB91F6D937D93208131815D
:100E4000828193810196B9010E946608828393830F
:100E5000868197812817390721F001968683978329
:100E60000895848195810196B9010E946608848362
:100E7000958380859185A285B3850196A11DB11DBD
:100E800080879187A287B3870895CF93DF9300D09F
:100E9000CDB7DEB7FC01892B21F1268137812115E1
:100EA0003105F9F084819581AC01440F551FA4856B
:100EB000B585A40FB51F4D915D9149835A83019665
:100EC000608171810E946608848395832150310975
:100ED0002683378389819A810F900F90DF91CF917C
:100EE00008954FEF49831A8289819A810F900F905C
:100EF000DF91CF910895FC01892BD9F086819781EC
:100F000068177907B0F42081318182819381861B33
:100F1000970B0197820F931FB9010E946608880FF3
:100F2000991F0484F585E02DE80FF91F80819181D8
:100F300008958FEF90E008958F929F92AF92BF92A5
:100F4000EF92FF920F931F93CF93DF9300D000D0C7
:100F500000D0CDB7DEB77C018B0161157105B1F111
:100F6000CB01A0E0B0E069839A831B821C821D82C2
:100F70001E824D0154016D817E81C7010E947B0755
:100F8000880E991EA11CB11CAD81BE811196AD8346
:100F9000BE830A171B0779F7B401C50129813A817D
:100FA0004B815C810E947A08C9010F900F900F90CD
:100FB0000F900F900F90DF91CF911F910F91FF90A5
:100FC000EF90BF90AF909F908F90089580E090E059
:100FD000ECCF8F929F92AF92BF92EF92FF920F93BE
:100FE0001F93CF93DF9300D000D000D0CDB7DEB7F2
:100FF0007C018B0161157105E1F1CB01A0E0B0E04E
:1010000069839A831B821C821D821E824D015401BA
:101010006D817E81C7010E947B07DC01A155B14033
:101020009D010E945708860E971EA81EB91EAD810D
:10103000BE811196AD83BE830A171B0749F7B40121
:10104000C50129813A814B815C810E947A08C901DE
:101050000F900F900F900F900F900F90DF91CF9106
:101060001F910F91FF90EF90BF90AF909F908F9046
:10107000089580E090E0ECCFCF93DF93C0910A0118
:10108000D0910B01CC0FDD1F0E94BB0521E0811127
:1010900020E0C22BD06EC0930A01D0930B0181E0F7
:1010A000C115D04F09F480E0DF91CF910895A29F40
:1010B000B001B39FC001A39F700D811D1124911D2C
:1010C000B29F700D811D1124911D0895AA1BBB1B99
:1010D00051E107C0AA1FBB1FA617B70710F0A61B38
:1010E000B70B881F991F5A95A9F780959095BC0159
:1010F000CD010895A1E21A2EAA1BBB1BFD010DC054
:10110000AA1FBB1FEE1FFF1FA217B307E407F507B7
:1011100020F0A21BB30BE40BF50B661F771F881F93
:10112000991F1A9469F760957095809590959B0129
:10113000AC01BD01CF0108952F923F924F925F9273
:101140006F927F928F929F92AF92BF92CF92DF92D7
:10115000EF92FF920F931F93CF93DF93CDB7DEB73C
:10116000CA1BDB0B0FB6F894DEBF0FBECDBF0994D0
:101170002A88398848885F846E847D848C849B8427
:10118000AA84B984C884DF80EE80FD800C811B8135
:10119000AA81B981CE0FD11D0FB6F894DEBF0FBE64
:1011A000CDBFED0108950E94A60908F481E00895DD
:1011B0000E94EC080C94E1090E94DA0958F00E94A0
:1011C000D30940F029F45F3F29F00C94CA0951116A
:1011D0000C94150A0C94D0090E94F20968F3992323
:1011E000B1F3552391F3951B550BBB27AA27621723
:1011F0007307840738F09F5F5F4F220F331F441F30
:10120000AA1FA9F335D00E2E3AF0E0E832D0915063
:101210005040E695001CCAF72BD0FE2F29D0660F50
:10122000771F881FBB1F261737074807AB07B0E893
:1012300009F0BB0B802DBF01FF2793585F4F3AF099
:101240009E3F510578F00C94CA090C94150A5F3F33
:10125000E4F3983ED4F3869577956795B795F7951F
:101260009F5FC9F7880F911D9695879597F9089507
:10127000E1E0660F771F881FBB1F621773078407A3
:10128000BA0720F0621B730B840BBA0BEE1F88F7B2
:10129000E0950895E89409C097FB3EF490958095F9
:1012A000709561957F4F8F4F9F4F9923A9F0F92F2C
:1012B00096E9BB279395F695879577956795B795AA
:1012C000F111F8CFFAF4BB0F11F460FF1BC06F5F90
:1012D0007F4F8F4F9F4F16C0882311F096E911C0A2
:1012E000772321F09EE8872F762F05C0662371F0C3
:1012F00096E8862F70E060E02AF09A95660F771FD7
:10130000881FDAF7880F9695879597F90895990FB2
:10131000BB0B550FAA0BE0E8FEEF16161706E80701
:10132000F90770F012161306E407F50760F0BA1714
:1013300054F031F42617370748075907A7951BF4CF
:10134000B901CA01BA2FB69597950895990F00086B
:10135000550FAA0BE0E8FEEF16161706E807F90787
:10136000C0F012161306E407F50798F0621B730B22
:10137000840B950B39F40A2661F0232B242B252BA3
:1013800021F408950A2609F4A140A6958FEF811D46
:10139000811D089597F99F6780E870E060E00895E7
:1013A0009FEF80EC089500240A941616170618067D
:1013B0000906089500240A94121613061406050659
:1013C0000895092E0394000C11F4882352F0BB0FEA
:1013D00040F4BF2B11F460FF04C06F5F7F4F8F4F4D
:1013E0009F4F089557FD9058440F551F59F05F3F88
:1013F00071F04795880F97FB991F61F09F3F79F037
:1014000087950895121613061406551FF2CF4695B8
:10141000F1DF08C0161617061806991FF1CF86953A
:101420007105610508940895E894BB27662777271E
:10143000CB0197F908950E942E0A0C94E1090E94AD
:10144000D30938F00E94DA0920F0952311F00C94AA
:10145000CA090C94D00911240C94150A0E94F209AF
:1014600070F3959FC1F3950F50E0551F629FF001F7
:10147000729FBB27F00DB11D639FAA27F00DB11D10
:10148000AA1F649F6627B00DA11D661F829F222799
:10149000B00DA11D621F739FB00DA11D621F839F20
:1014A000A00D611D221F749F3327A00D611D231FF6
:1014B000849F600D211D822F762F6A2F11249F5744
:1014C00050409AF0F1F088234AF0EE0FFF1FBB1F47
:1014D000661F771F881F91505040A9F79E3F510506
:1014E00080F00C94CA090C94150A5F3FE4F3983E0F
:1014F000D4F3869577956795B795F795E7959F5FB0
:10150000C1F7FE2B880F911D9695879597F9089541
:101510000E94FA09E8F09E37E8F09639B8F49E3850
:1015200048F4672F782F8827985FF9CF86957795AD
:10153000679593959539D0F3B62FB1706B0F711DE8
:10154000811D20F487957795679593950C94AC0A47
:101550000C94C70A0C94150A882371F4772321F0A0
:101560009850872B762F07C0662311F499270DC05A
:101570009051862B70E060E02AF09A95660F771FF5
:10158000881FDAF7880F9695879597F908959F3FFA
:1015900031F0915020F4879577956795B795880F2E
:1015A000911D9695879597F908950F931F93CF9363
:1015B000DF938230910510F482E090E0E0910E011B
:1015C000F0910F0130E020E0B0E0A0E0309799F416
:1015D0002115310509F447C0281B390B243031058A
:1015E000C0F58A819B816115710571F1FB019383BF
:1015F0008283FE0111C0408151810281138148170D
:101600005907F8F04817590799F4109761F01296A6
:101610000C93129713961C933296CF01DF91CF91C2
:101620001F910F91089500930E0110930F01F4CFB5
:101630002115310519F04217530718F49A01BD011D
:10164000EF01DF01F801C2CF90930F0180930E01EB
:10165000D0CFFE01E20FF31F819391932250310905
:1016600039832883DACF20910C0130910D01232B8F
:1016700041F4209102013091030130930D01209338
:101680000C0120910001309101012115310541F437
:101690002DB73EB74091040150910501241B350B35
:1016A00040910C0150910D014217530708F0B5CF3E
:1016B000241B350B2817390708F4AFCFBC016E5F28
:1016C0007F4F2617370708F4A8CF640F751F709354
:1016D0000D0160930C01FA01819391939ECFCF93FA
:1016E000DF930097E9F0FC01329713821282C091D8
:1016F0000E01D0910F01DE0130E020E02097A1F42F
:1017000020813181820F931F20910C0130910D01B6
:101710002817390709F067C0F0930D01E0930C0119
:10172000DF91CF910895DA01AE17BF0708F040C0EE
:1017300012964D915C9113979D014115510599F7B2
:10174000D9011396FC93EE9312974D915D91A40FDE
:10175000B51FEA17FB0779F4808191810296840F07
:10176000951FD90111969C938E9382819381139634
:101770009C938E931297B0E0A0E08A819B810097A2
:10178000B9F5FE0181919191E80FF91F80910C014B
:1017900090910D018E179F0719F6109761F5109221
:1017A0000F0110920E01D0930D01C0930C01B8CF20
:1017B000B383A28340815181840F951FA817B90775
:1017C00071F44E5F5F4F8D919C911197480F591F97
:1017D0005183408312968D919C919383828321152E
:1017E000310509F0ADCFF0930F01E0930E0198CFD2
:1017F000DE01EC01C2CF13961C921E921297D3CF3A
:10180000283008F027E03327DA01990F311D87FDD2
:10181000916000966105710539F432602E5F3D9349
:1018200030E32A95E1F708959F3F30F08038710545
:10183000610509F03C5F3C5F3D93913008F08068A2
:10184000911DDF93CF931F930F93FF92EF92192F68
:10185000987F9695E92F96959695E90FFF27E65381
:10186000FF4F99273327EE24FF24A701E7010590B6
:101870000894079428F4360FE71EF81E491F511DDF
:10188000660F771F881F991F0694A1F7059007948C
:1018900028F4E70EF81E491F561FC11D770F881F39
:1018A000991F661F0694A1F70590079428F4F80E77
:1018B000491F561FC71FD11D880F991F661F771F0D
:1018C0000694A1F70590079420F4490F561FC71FEF
:1018D000D81F990F661F771F881F0694A9F7849158
:1018E0001095177041F0D695C79557954795F79481
:1018F000E7941A95C1F7E0E7F0E068941590159128
:1019000035916591959105907FE27395E118F10A03
:10191000430B560BC90BD009C0F7E10CF11E431F56
:10192000561FC91FD01D7EF4703311F48A95E6CF7F
:10193000E894015030F0080F0AF40027021708F469
:10194000202F2395022F7A3328F079E37D932A956F
:10195000E9F710C07D932A9589F6069497956795C7
:10196000379517951794E118F10A430B560BC90BDD
:10197000D00998F023957E9173957A3308F070E33F
:101980007C932013B8F77E9170617D9330F083953E
:1019900071E37D9370E32A95E1F71124EF90FF90B6
:1019A0000F911F91CF91DF91992787FD9095089511
:1019B000FC010590615070400110D8F7809590951A
:1019C0008E0F9F1F0895FC0161507040019001101F
:1019D000D8F7809590958E0F9F1F08950F931F93B2
:1019E000CF93DF93182F092FEB018B8181FD09C065
:1019F0001FEF0FEF812F902FDF91CF911F910F914C
:101A0000089582FF14C02E813F818C819D8128170B
:101A100039073CF4E881F981CF01019699838883E5
:101A200010838E819F8101969F838E83E3CFE8850B
:101A3000F985812F0995892BA1F3DACFFA01AA271D
:101A4000283051F1203181F1E8946F936E7F6E5F01
:101A50007F4F8F4F9F4FAF4FB1E03ED0B4E03CD0AF
:101A6000670F781F891F9A1FA11D680F791F8A1F92
:101A7000911DA11D6A0F711D811D911DA11D20D0F9
:101A800009F468943F912AE0269F11243019305DB3
:101A90003193DEF6CF010895462F4770405D4193A4
:101AA000B3E00FD0C9F7F6CF462F4F70405D4A33F1
:101AB00018F0495D31FD4052419302D0A9F7EACFB9
:101AC000B4E0A6959795879577956795BA95C9F7E8
:101AD00000976105710508959B01AC010A2E0694DB
:101AE0005795479537952795BA95C9F7620F731F94
:0C1AF000841F951FA01D0895F894FFCFDF
:061AFC00000010012000B3
:00000001FF
